:020000040000FA
:04000000A7EF08F06E
:0400080006EF09F006
:06002A0000C0E5FF01C06B
:10003000E5FF02C0E5FF03C0E5FF81B42DD07C0ED3
:100040000001E75D29E2006A81B4002A0050D880EF
:10005000E866D890006A0036E85100181DE06FECA1
:1000600008F0C4C000F0C5C001F0C6C002F0C7C0AF
:1000700003F0002AD8B0012AD8B0022AD8B0032A47
:1000800000500001C46F0150C56F0250C66F03508D
:10009000C76F0DEC09F029D00001E751010A25E1F5
:1000A000006A81B4002A0050D880E866D890006ABF
:1000B00000360050010A19E10001F751D880E866C6
:1000C000D890F76BF737F7C000F0016A026A036A4D
:1000D00000500001E06F0150E16F0250E26F0350E9
:1000E000E36F0DEC09F041EC08F080BC2CD07C0EE5
:1000F0000001E95D28E2006A80BC002A0050D88037
:10010000E866D890006A0036EA5100181CE059EC05
:1001100008F0C8C000F0C9C001F0CAC002F0CBC0EE
:1001200003F0002AD8B0012AD8B0022AD8B0032A96
:1001300000500001C86F0150C96F0250CA6F0350D0
:10014000CB6F0DEC09F080BE39D07C0E0001EB5D69
:1001500035E2800E8014006E0050D880E866D8909A
:10016000006A0036EC51001829E00001F65109E15F
:10017000EEC0EFF0F0C0F1F0F2C0F5F0010EF66F56
:1001800002D00001F66BCCC000F0CDC001F0CEC0B3
:1001900002F0CFC003F0002AD8B0012AD8B0022A5A
:1001A000D8B0032A00500001CC6F0150CD6F02502F
:1001B000CE6F0350CF6F0DEC09F031D00001EB5141
:1001C000010A2DE1800E8014006E0050D880E86690
:1001D000D890006A00360050010A21E10001F66B58
:1001E000BDEC08F0080E0001F227CCC000F0CDC035
:1001F00001F0CEC002F0CFC003F0002AD8B0012A2F
:10020000D8B0022AD8B0032A00500001CC6F0150A8
:10021000CD6F0250CE6F0350CF6F0DEC09F0006A26
:1002200081B4002A0050D880E866D890006A003671
:100230000001E85100180EE07F0E0001E76F006A30
:1002400081B4002A0050D880E866D890006A003651
:100250000050E86FE7C000F0005004E000060050D6
:100260000001E76F006A80BC002A0050D880E86671
:10027000D890006A00360001EA5100180EE07F0EA7
:100280000001E96F006A80BC002A0050D880E8664F
:10029000D890006A00360050EA6FE9C000F00050C4
:1002A00004E0000600500001E96F800E8014006E2B
:1002B0000050D880E866D890006A00360001EC5102
:1002C00000180EE07F0E0001EB6F800E8014006EB0
:1002D0000050D880E866D890006A00360050EC6F75
:1002E000EBC000F0005004E0000600500001EB6F8E
:1002F000E4CF03F0E4CF02F0E4CF01F0E4CF00F06C
:10030000120000C0E5FF01C0E5FF02C0E5FF03C029
:10031000E5FF04C0E5FF05C0E5FF06C0E5FF85EC8D
:1003200008F09384D10E9212010EC26E7E0EC16E41
:10033000C06A0C0EBD6EFF0ECB6E040ECA6EBE6A96
:100340000001E76B006A81B4002A0050D880E8669B
:10035000D890006A00360050E86F0001E96B006A2F
:1003600080BC002A0050D880E866D890006A003629
:100370000050EA6F0001EB6B800E8014006E00509D
:10038000D880E866D890006A00360050EC6F000113
:10039000F66B81A4DBD080BCD9D080AED7D0D8C0DA
:1003A00000F0D9C001F0DAC002F0DBC003F0002A8F
:1003B000D8B0012AD8B0022AD8B0032A00500001D0
:1003C000D86F0150D96F0250DA6F0350DB6FB3EC76
:1003D00008F0006A00380F0B016E0F0E0014026E59
:1003E000000E046EC00E036E800E056E00500326D4
:1003F000E86A0422E86A052203C0E9FF04C0F3FFAB
:10040000055096EC08F0036E03380F0B036E000ED8
:10041000056EC00E046E800E066E00500426E86A5B
:100420000522E86A062204C0E9FF05C0F3FF065072
:1004300096EC08F0046E0F0E04160450E56E03509F
:10044000E56E100EE56EE56E0250E56E0150E56E4C
:10045000B9EC02F0060EE126010EE9EC05F081B4DC
:1004600015D07C0E0001E75D11E2016A81B4012A1A
:100470000150D880E866D890016A0136E851011829
:1004800005E0002A240E005C01E3006A80BE16D05D
:100490007C0E0001EB5D12E2800E8014016E0150B3
:1004A000D880E866D890016A0136EC51011806E060
:1004B0000006240E005C02E3230E006E016A81B484
:1004C000012A0150D880E866D890016A01360001FF
:1004D000E85101180EE07F0E0001E76F016A81B458
:1004E000012A0150D880E866D890016A013601508F
:1004F000E86FE7C001F0015004E00106015000017F
:10050000E76F800E8014016E0150D880E866D890A5
:10051000016A01360001EC5101180EE07F0E000166
:10052000EB6F800E8014016E0150D880E866D89081
:10053000016A01360150EC6F0001EB51D8B44AD783
:10054000EBC001F001060150EB6F44D70001E05110
:100550000001F76FE4CF06F0E4CF05F0E4CF04F03C
:10056000E4CF03F0E4CF02F0E4CF01F0E4CF00F0F9
:100570001200D9CFE5FFE1CFD9FF00C0E5FF01C0F0
:10058000E5FF02C0E5FF03C0E5FF04C0E5FF05C0CD
:10059000E5FF06C0E5FF07C0E5FF020EDBCF00F078
:1005A000030EDBCF01F0040EDBCF02F0050EDBCF34
:1005B00003F0060EDBCF04F0070EDBCF05F08A96C2
:1005C000C00E05260B0E066A0622000E076A0722D9
:1005D00005C0F6FF06C0F7FF07C0F8FF0900F5CF1A
:1005E00005F00550E56E2EEC07F0E12AC00E04265A
:1005F0000B0E056A0522000E066A062204C0F6FFED
:1006000005C0F7FF06C0F8FF0900F5CF04F004802D
:100610000450E56E2EEC07F0E12AC00E03260B0E07
:10062000046A0422000E056A052203C0F6FF04C016
:10063000F7FF05C0F8FF0900F5CF03F00380035072
:10064000E56EF3EC04F0E12AC00E02260B0E036AFD
:100650000322000E046A042202C0F6FF03C0F7FF63
:1006600004C0F8FF0900F5CF02F002800250E56EE9
:100670002EEC07F0E12AC00E01260B0E026A0222C0
:10068000000E036A032201C0F6FF02C0F7FF03C099
:10069000F8FF0900F5CF01F00001E451011201500B
:1006A000E56EF3EC04F0E12AC00E00260B0E016AA1
:1006B0000122000E026A022200C0F6FF01C0F7FF0D
:1006C00002C0F8FF0900F5CF00F00050E56EF3EC32
:1006D00004F0E12A8A888A98E4CF07F0E4CF06F094
:1006E000E4CF05F0E4CF04F0E4CF03F0E4CF02F070
:1006F000E4CF01F0E4CF00F0E4CFD9FF120000C056
:10070000E5FF01C0E5FF02C0E5FF03C0E5FF04C04F
:10071000E5FF05C0E5FF0001F651D880E866D890F6
:10072000006A0036005003E0F2C001F002D0F5C0CC
:1007300001F0D8900130016ED89001323C0EE56E88
:1007400001C0E5FF21EC06F0016EE450E450010E1B
:100750000001E46F005003E0EEC000F002D0EFC0F3
:1007600000F00001F7510CE00C0E005C03E3F40E06
:10077000002602D00001E46B005002E10C0E006E76
:100780000050E56ECBEC06F0006EE12A00380F0B4E
:10079000026E025005E10001F75102E0100E026EF8
:1007A0000F0E00160001F651D880E866D890036A53
:1007B0000336035003E0F0C003F002D0F1C003F0B1
:1007C0000350E56ECBEC06F0036EE12A0150E56EB6
:1007D000CBEC06F0016EE12A03380F0B046E0F0E0E
:1007E000031601380F0B056E0F0E01160150E56E52
:1007F0000550E56E0350E56E0450E56E0050E56E61
:100800000250E56EB9EC02F0060EE126E4CF05F0E9
:10081000E4CF04F0E4CF03F0E4CF02F0E4CF01F042
:10082000E4CF00F0120000C0E5FF01C0E5FF02C008
:10083000E5FF03C0E5FF0001F32BF351100A01E0CF
:100840004BD00001F36B0001F251030B18E1C0C063
:1008500000F0C1C001F0C2C002F0C3C003F0002A22
:10086000D8B0012AD8B0022AD8B0032A005000011B
:10087000C06F0150C16F0250C26F0350C36F0001BF
:10088000F22BF00EF25D28E3F26BEEC000F0F0C048
:1008900001F0F2C002F08EEC04F00001F25108E029
:1008A000790EF25D03E30001F30702D00001F32BA0
:1008B00000C0EEF001C0F0F002C0F2F00001F02B39
:1008C0003C0EF05D09E3F06B0DEC09F00001EE2B3E
:1008D000180EEE5D01E3EE6B0001F42BF451080AF3
:1008E00014E10001F46B0001F52BF00EF55D0DE352
:1008F000F56B0001F12B3C0EF15D07E3F16B00019C
:10090000EF2B180EEF5D01E3EF6BE4CF03F0E4CFC4
:1009100002F0E4CF01F0E4CF00F0120000C0E5FFE8
:1009200001C0E5FF000EE56A5DEC07F0E12AE56E27
:1009300008EC08F0E12A040DF3CFF2F0010EE56EA9
:100940005DEC07F0E12AE56E08EC08F00001F06FBD
:10095000E12A020EE56E5DEC07F0E12AE56E08EC97
:1009600008F00001EE6FE12A110EE56E5DEC07F074
:10097000006EE12A0001D051800FF36E0050800F0D
:10098000F35C0EE2110EE56E5DEC07F0E12A016A00
:100990000001D06F0150D16BD26BD36B0DEC09F01D
:1009A000110EE56E5DEC07F0006EE12A0001D451F6
:1009B000016E0050800FF36E0150800FF35C0EE269
:1009C000110EE56E5DEC07F0E12A016A0001D46FBB
:1009D0000150D56BD66BD76B0DEC09F0E4CF01F06D
:1009E000E4CF00F01200D9CFE5FFE1CFD9FF00C07E
:1009F000E5FF020EDBCF00F000500001ED6FEDA12E
:100A000002D0898401D08994898689960001EDA35A
:100A100002D0898401D08994898689960001EDA548
:100A200002D0898401D08994898689960001EDA736
:100A300002D0898401D08994898689960001EDA924
:100A400002D0898401D08994898689960001EDAB12
:100A500002D0898401D08994898689960001EDAD00
:100A600002D0898401D08994898689960001EDAFEE
:100A700002D0898401D0899489868996E4CF00F0D8
:100A8000E4CFD9FF1200CE0EF66E110EF76E000EF7
:100A9000F86E0900F550056E0900F550066E04E188
:100AA000056702D092EF05F00900F550006E0900CD
:100AB000F550016E0900F550026E09000900F5506D
:100AC000E96E0900F550EA6E090009000900F550C9
:100AD000036E0900F550046E09000900F6CF07F017
:100AE000F7CF08F0F8CF09F000C0F6FF01C0F7FF1C
:100AF00002C0F8FF035002E1045009E00900F5507C
:100B0000EE6EF5CF7EFF0306F6E20406F7D707C0C8
:100B1000F6FF08C0F7FF09C0F8FF050601E2060668
:100B20004FEF05F01200D9CFE5FFE1CFD9FF00C0AC
:100B3000E5FF01C0E5FF020EDBCF00F0D9EC08F0C5
:100B4000F4EC08F0D00EE56EE0EC07F0E12A00507E
:100B5000E56EE0EC07F0E12A00500FE1D8900001CB
:100B6000F231016ED89001320150E56ECBEC06F007
:100B7000E12AE56EE0EC07F0E12A0050010A0AE103
:100B80000001F051E56ECBEC06F0E12AE56EE0ECF9
:100B900007F0E12A0050020A0AE10001EE51E56E79
:100BA000CBEC06F0E12AE56EE0EC07F0E12A02EC7E
:100BB00009F0E4CF01F0E4CF00F0E4CFD9FF120058
:100BC000FC60DAF266B6BEE0FEE6EE3E9C7A9E8EF1
:100BD0000001E8060000E85007E000D000D000D097
:100BE00000D00000E82EFAD71200E806E56E630E8A
:100BF0000EEC06F0630EE9EC05F0E4500EE000D0D8
:100C0000E56E630E0EEC06F0630EE9EC05F000D025
:100C100000D00000E450E82EF3D71200E806E56E9D
:100C2000630EE9EC05F0E4500BE000D0E56E630ED6
:100C3000E9EC05F000D000D00000E450E82EF6D733
:100C40001200D9CFE5FFE1CFD9FF00C0E5FF01C019
:100C5000E5FF02C0E5FF03C0E5FF020EDBCF00F0B9
:100C6000030EDBCF01F0026A036A01BE0CD0015013
:100C700001260150005C03E2D890013204D0032A1F
:100C800003C002F0F2D70150005C02E30150005EA5
:100C9000D890013202C003F002060350F4E1005084
:100CA000E4CF03F0E4CF02F0E4CF01F0E4CF00F0B2
:100CB000E4CFD9FF1200D9CFE5FFE1CFD9FF00C0C3
:100CC000E5FF01C0E5FF02C0E5FF240E0001E55D80
:100CD00022E2A6B220D0E5C0A9FF000E016EC00E30
:100CE000006E800E026EA9500026E86A0122E86AB2
:100CF000022200C0E9FF01C0F3FF025096EC08F0A9
:100D0000A86EA69EA69CA684550EA76EAA0EA76ED8
:100D1000A6820001E52BE4CF02F0E4CF01F0E4CF9E
:100D200000F0E4CFD9FF1200D9CFE5FFE1CFD9FF22
:100D300000C0E5FF01C0E5FF02C0E5FF03C0E5FF1D
:100D400004C0E5FF020EDBCF00F0030EDBCF01F0A5
:100D5000026A080E036E800E0014046E0050002616
:100D6000025002260450D8A402800150025C03E322
:100D70000150025E0080032EEED70050E4CF04F055
:100D8000E4CF03F0E4CF02F0E4CF01F0E4CF00F0D1
:100D9000E4CFD9FF1200D9CFE5FFE1CFD9FF00C0E2
:100DA000E5FF01C0E5FF02C0E5FF020EDBCF00F06A
:100DB0000A0EE56E00C0E5FF94EC06F0016EE4500B
:100DC000E4500138F00B026EF00E0214016E0A0EB0
:100DD000E56E00C0E5FF21EC06F0006EE450E45043
:100DE0000F0E0016005001120150E4CF02F0E4CFC4
:100DF00001F0E4CF00F0E4CFD9FF1200D9CFE5FF36
:100E0000E1CFD9FF00C0E5FF01C0E5FF02C0E5FF6B
:100E1000020EDBCF00F0016A9382080E026E0250D0
:100E20000BE001500126938081A0FDD781A201D063
:100E3000018093900206F3D7005002E0939201D014
:100E400093829380939093820150E4CF02F0E4CF99
:100E500001F0E4CF00F0E4CFD9FF1200D9CFE5FFD5
:100E6000E1CFD9FF00C0E5FF01C0E5FF02C0E5FF0B
:100E7000020EDBCF00F01C0E0014016E01343E0B9D
:100E8000026E02260236E00E0014016E0138016E79
:100E900001441F0B0212030E0016005002120250F2
:100EA000E56EF3EC04F0E12AE4CF02F0E4CF01F0C8
:100EB000E4CF00F0E4CFD9FF1200D9CFE5FFE1CFB6
:100EC000D9FF00C0E5FF020EDBCF00F0D9EC08F03F
:100ED000F4EC08F0D00EE56EE0EC07F0E12A0050EB
:100EE000E56EE0EC07F0E12AF4EC08F0D10EE56ED7
:100EF000E0EC07F0E12A010EE56EFEEC06F0006E74
:100F0000E12A02EC09F00050E4CF00F0E4CFD9FF71
:100F10001200E8CFE5FFD8CFE5FFE0CFE5FFF3CF44
:100F2000E5FFF4CFE5FFE9CFE5FFEACFE5FFFACF34
:100F3000E5FFFBCFE5FF13EC04F0E0EC08F05BEC21
:100F400006F0F294E4CFFBFFE4CFFAFFE4CFEAFF30
:100F5000E4CFE9FFE4CFF4FFE4CFF3FFE4CFE0FF19
:100F6000E4CFD8FFE4CFE8FF100000C0E5FF01C0E8
:100F7000E5FF02C0E5FFA96A240EA95C1AE2A69E5D
:100F8000A69CA680000E016EC00E006E800E026E42
:100F9000A9500026E86A0122E86A0222A8CFE5FFEC
:100FA00000C0E9FF01C0F3FF0250C7EC08F0A92A16
:100FB000E3D7E4CF02F0E4CF01F0E4CF00F0120079
:100FC000D9CFE5FFE1CFD9FF00C0E5FF01C0E5FFC4
:100FD000020EDBCF00F0080E016E01500BE000AEF8
:100FE00002D0938201D09392938093900050002678
:100FF0000106F3D793829380006A81B2002A93900E
:101000000050E4CF01F0E4CF00F0E4CFD9FF1200AC
:10101000D9CFE5FFE1CFD9FF00C0E5FF01C0E5FF73
:10102000020EDBCF00F00F0E0014016EF00E001662
:1010300000380F0B0A0DF3CF00F0005001260150CD
:10104000E4CF01F0E4CF00F0E4CFD9FF1200400E6E
:10105000D36E926A936A7F0EC16EB5EC07F0D1EC45
:1010600008F081EC01F0B5EC07F0D1EC08F081EC70
:1010700001F0F294F28AF28EE00ED56E12EC09F0D5
:1010800012000001F6510DE10001EE07180EEE5DB1
:1010900002E3170EEE6F020EE56E93EC05F0E12A07
:1010A00007D00001EF07180EEF5D02E3170EEF6F98
:1010B00012000001F6510CE10001F02B3C0EF05D36
:1010C00001E3F06B010EE56E93EC05F0E12A06D02A
:1010D0000001F12B3C0EF15D01E3F16B1200000108
:1010E000F6510CE10001EE2B180EEE5D01E3EE6B04
:1010F000020EE56E93EC05F0E12A06D00001EF2B1D
:10110000180EEF5D01E3EF6B1200928292949296BB
:1011100093969398080EE56EE56EE56EE56EE56EC6
:10112000E56EB9EC02F0060EE1261200E8AE04D03E
:10113000F3CFEAFFEE501200E8BC08D0E9CFF6FF8B
:10114000F3CFF7FFF86E0900F5501200120010EE11
:10115000BFF020EEBFF0F86AA68EA69C43EC05F027
:1011600027EC08F0FFD70001E56B240E0001E55DD8
:1011700003E25BEC06F0F9D712000001F26B00010C
:10118000F36B000EE56A93EC05F0E12A1200E8AE7D
:1011900005D0F3CFEAFFE4CFEEFF1200E8AC120077
:1011A00012000AEC09F0010EF5EC05F08EEC04F0EB
:1011B0001200938281B203D093909380FBD71200E8
:1011C000EEEC08F015EC00F07FEC03F012000100EB
:1011D00020120000E400000003000000C282C2B23E
:1011E000FED7C4CFBEFF1200938293809392939058
:1011F00012008A908A9202EC09F01200A69EA69C28
:10120000A68012009392938093821200F2B489EF29
:1012100007F01000F9EC08F012000001E56B120075
:0812200001240000FFD71200B9
:020000040030CA
:0E000000FFF8F2FEFFFFFAFFFFFFFFFFFFFF1A
:00000001FF
