:020000040000FA
:040000004EEF08F0C7
:04000800ADEF08F060
:20002A0000C0E5FF01C0E5FF02C0E5FF03C0E5FF04C0E5FF05C0E5FF06C0E5FF07EC08F03A
:20004A009384D10E9212010EC26E7E0EC16EC06A0C0EBD6EFF0ECB6E040ECA6EBE6A0001DA
:20006A00E76B006A81B4002A0050D880E866D890006A00360050E86F0001E96B006A80BCBB
:20008A00002A0050D880E866D890006A00360050EA6F0001EB6B800E8014006E0050D880F6
:2000AA00E866D890006A00360050EC6F81A408D080AC06D080BE04D0010E0001F26FEAD0F9
:2000CA0081B408D080AC06D080AE04D0030E0001F26FE0D081A4DBD080BCD9D080AED7D058
:2000EA00D8C000F0D9C001F0DAC002F0DBC003F0002AD8B0012AD8B0022AD8B0032A005034
:20010A000001D86F0150D96F0250DA6F0350DB6F5AEC08F0006A00380F0B016E0F0E001422
:20012A00026E000E046EC00E036E800E056E00500326E86A0422E86A052203C0E9FF04C0AC
:20014A00F3FF055018EC08F0036E03380F0B036E000E056EC00E046E800E066E00500426DE
:20016A00E86A0522E86A062204C0E9FF05C0F3FF065018EC08F0046E0F0E04160450E56E7D
:20018A000350E56E100EE56EE56E0250E56E0150E56EA5EC02F0060EE126010EAFEC05F065
:2001AA0081B415D07C0E0001E75D11E2016A81B4012A0150D880E866D890016A0136E85154
:2001CA00011805E0002A240E005C01E3006A80BE16D07C0E0001EB5D12E2800E8014016E95
:2001EA000150D880E866D890016A0136EC51011806E00006240E005C02E3230E006E016A35
:20020A0081B4012A0150D880E866D890016A01360001E85101180EE07F0E0001E76F016AE3
:20022A0081B4012A0150D880E866D890016A01360150E86FE7C001F0015004E00106015086
:20024A000001E76F800E8014016E0150D880E866D890016A01360001EC5101180EE07F0ED9
:20026A000001EB6F800E8014016E0150D880E866D890016A01360150EC6F0001EB51D8B412
:20028A004AD7EBC001F001060150EB6F44D7050E0001F26F0001F251050A05E10001DC51EE
:2002AA000001F26F0CD0F2C000F0016A00500001DC6F0150DD6BDE6BDF6BB4EC08F0000188
:2002CA00E0510001F36FE4CF06F0E4CF05F0E4CF04F0E4CF03F0E4CF02F0E4CF01F0E4CFE6
:2002EA0000F0120000C0E5FF01C0E5FF02C0E5FF03C0E5FF81B42DD07C0E0001E75D29E250
:20030A00006A81B4002A0050D880E866D890006A0036E85100181DE042EC08F0C4C000F024
:20032A00C5C001F0C6C002F0C7C003F0002AD8B0012AD8B0022AD8B0032A00500001C46F81
:20034A000150C56F0250C66F0350C76FB4EC08F029D00001E751010A25E1006A81B4002A5A
:20036A000050D880E866D890006A00360050010A19E10001F351D880E866D890F36BF33745
:20038A00F3C000F0016A026A036A00500001E06F0150E16F0250E26F0350E36FB4EC08F04B
:2003AA0029EC08F080BC2CD07C0E0001E95D28E2006A80BC002A0050D880E866D890006A7B
:2003CA000036EA5100181CE036EC08F0C8C000F0C9C001F0CAC002F0CBC003F0002AD8B0D6
:2003EA00012AD8B0022AD8B0032A00500001C86F0150C96F0250CA6F0350CB6FB4EC08F09E
:20040A0080BE2CD07C0E0001EB5D28E2800E8014006E0050D880E866D890006A0036EC51F0
:20042A0000181CE064EC08F0CCC000F0CDC001F0CEC002F0CFC003F0002AD8B0012AD8B0F5
:20044A00022AD8B0032A00500001CC6F0150CD6F0250CE6F0350CF6FB4EC08F0006A81B441
:20046A00002A0050D880E866D890006A00360001E85100180EE07F0E0001E76F006A81B487
:20048A00002A0050D880E866D890006A00360050E86FE7C000F0005004E000060050000161
:2004AA00E76F006A80BC002A0050D880E866D890006A00360001EA5100180EE07F0E00013E
:2004CA00E96F006A80BC002A0050D880E866D890006A00360050EA6FE9C000F0005004E076
:2004EA00000600500001E96F800E8014006E0050D880E866D890006A00360001EC5100185F
:20050A000EE07F0E0001EB6F800E8014006E0050D880E866D890006A00360050EC6FEBC017
:20052A0000F0005004E0000600500001EB6FE4CF03F0E4CF02F0E4CF01F0E4CF00F0120038
:20054A00D9CFE5FFE1CFD9FF00C0E5FF01C0E5FF02C0E5FF03C0E5FF04C0E5FF05C0E5FF96
:20056A0006C0E5FF07C0E5FF020EDBCF00F0030EDBCF01F0040EDBCF02F0050EDBCF03F068
:20058A00060EDBCF04F0070EDBCF05F08A964C0E05260B0E066A0622000E076A072205C028
:2005AA00F6FF06C0F7FF07C0F8FF0900F5CF05F00550E56EF4EC06F0E12A4C0E04260B0EDA
:2005CA00056A0522000E066A062204C0F6FF05C0F7FF06C0F8FF0900F5CF04F0048004500B
:2005EA00E56EF4EC06F0E12A4C0E03260B0E046A0422000E056A052203C0F6FF04C0F7FF77
:20060A0005C0F8FF0900F5CF03F003800350E56EB9EC04F0E12A4C0E02260B0E036A03225A
:20062A00000E046A042202C0F6FF03C0F7FF04C0F8FF0900F5CF02F002800250E56EF4EC1D
:20064A0006F0E12A4C0E01260B0E026A0222000E036A032201C0F6FF02C0F7FF03C0F8FF9D
:20066A000900F5CF01F00001E45101120150E56EB9EC04F0E12A4C0E00260B0E016A0122FA
:20068A00000E026A022200C0F6FF01C0F7FF02C0F8FF0900F5CF00F00050E56EB9EC04F094
:2006AA00E12A8A888A98E4CF07F0E4CF06F0E4CF05F0E4CF04F0E4CF03F0E4CF02F0E4CF51
:2006CA0001F0E4CF00F0E4CFD9FF120000C0E5FF01C0E5FF02C0E5FF03C0E5FF04C0E5FFA1
:1606EA0005C0E5FF0001F251010A0EE1D8900001F031006E3C0ED1
:20070000E56E00C0E5FFE7EC05F0006EE450E4500FD00001F039016E01441F0B016E010EDF
:200720000001EF151E0DF3CF02F002500124006E010E0001E46FEEC001F00001F3510CE0BD
:200740000C0E015C03E3F40E012602D00001E46B015002E10C0E016E0150E56E91EC06F01D
:20076000016EE12A01380F0B026E025005E10001F35102E0100E026E0F0E01160001EF51DA
:20078000E56E91EC06F0036EE12A0050E56E91EC06F0006EE12A03380F0B046E0F0E03168B
:2007A00000380F0B056E0F0E00160050E56E0550E56E0350E56E0450E56E0150E56E0250B3
:2007C000E56EA5EC02F0060EE126E4CF05F0E4CF04F0E4CF03F0E4CF02F0E4CF01F0E4CF37
:2007E00000F0120000C0E5FF01C0E5FF000EE56A23EC07F0E12AE56ECEEC07F0E12A040D20
:20080000F3CFF0F0010EE56E23EC07F0E12AE56ECEEC07F00001EF6FE12A020EE56E23ECE3
:2008200007F0E12AE56ECEEC07F00001EE6FE12A110EE56E23EC07F0006EE12A0001D05136
:20084000800FF36E0050800FF35C0EE2110EE56E23EC07F0E12A016A0001D06F0150D16BCF
:20086000D26BD36BB4EC08F0110EE56E23EC07F0006EE12A0001D451016E0050800FF36E9F
:200880000150800FF35C0EE2110EE56E23EC07F0E12A016A0001D46F0150D56BD66BD76BF3
:2008A000B4EC08F0E4CF01F0E4CF00F0120000C0E5FF01C0E5FF02C0E5FF03C0E5FF0001B0
:2008C000F12BF151100A01E04BD00001F16B0001F051030B18E1C0C000F0C1C001F0C2C09A
:2008E00002F0C3C003F0002AD8B0012AD8B0022AD8B0032A00500001C06F0150C16F0250F7
:20090000C26F0350C36F0001F02BF00EF05D28E3F06BEEC000F0EFC001F0F0C002F0F2EC96
:2009200003F00001F05108E0790EF05D03E30001F10702D00001F12B00C0EEF001C0EFF0BA
:2009400002C0F0F00001EF2B3C0EEF5D09E3EF6BB4EC08F00001EE2B180EEE5D01E3EE6B9E
:20096000E4CF03F0E4CF02F0E4CF01F0E4CF00F01200D9CFE5FFE1CFD9FF00C0E5FF020E0B
:20098000DBCF00F000500001ED6FEDA102D0898401D08994898689960001EDA302D0898417
:2009A00001D08994898689960001EDA502D0898401D08994898689960001EDA702D0898419
:2009C00001D08994898689960001EDA902D0898401D08994898689960001EDAB02D08984F1
:2009E00001D08994898689960001EDAD02D0898401D08994898689960001EDAF02D08984C9
:200A000001D0899489868996E4CF00F0E4CFD9FF12001C0EF66E110EF76E000EF86E0900EB
:200A2000F550056E0900F550066E04E1056702D058EF05F00900F550006E0900F550016E64
:200A40000900F550026E09000900F550E96E0900F550EA6E090009000900F550036E0900AA
:200A6000F550046E09000900F6CF07F0F7CF08F0F8CF09F000C0F6FF01C0F7FF02C0F8FF4E
:200A8000035002E1045009E00900F550EE6EF5CF7EFF0306F6E20406F7D707C0F6FF08C0BB
:200AA000F7FF09C0F8FF050601E2060615EF05F01200D9CFE5FFE1CFD9FF00C0E5FF01C002
:200AC000E5FF020EDBCF00F080EC08F09BEC08F0D00EE56EA6EC07F0E12A0050E56EA6ECAB
:200AE00007F0E12A00500FE1D8900001F031016ED89001320150E56E91EC06F0E12AE56EAB
:200B0000A6EC07F0E12A0050010A0AE10001EF51E56E91EC06F0E12AE56EA6EC07F0E12A02
:200B20000050020A0AE10001EE51E56E91EC06F0E12AE56EA6EC07F0E12AA9EC08F0E4CF36
:200B400001F0E4CF00F0E4CFD9FF1200FC60DAF266B6BEE0FEE6EE3E9C7A9E8E0001E80641
:200B60000000E85007E000D000D000D000D00000E82EFAD71200E806E56E630ED4EC05F0B6
:200B8000630EAFEC05F0E4500EE000D0E56E630ED4EC05F0630EAFEC05F000D000D0000048
:200BA000E450E82EF3D71200E806E56E630EAFEC05F0E4500BE000D0E56E630EAFEC05F08A
:200BC00000D000D00000E450E82EF6D71200D9CFE5FFE1CFD9FF00C0E5FF01C0E5FF02C02D
:200BE000E5FF03C0E5FF020EDBCF00F0030EDBCF01F0026A036A01BE0CD0015001260150D7
:200C0000005C03E2D890013204D0032A03C002F0F2D70150005C02E30150005ED89001329D
:200C200002C003F002060350F4E10050E4CF03F0E4CF02F0E4CF01F0E4CF00F0E4CFD9FF62
:200C40001200D9CFE5FFE1CFD9FF00C0E5FF01C0E5FF02C0E5FF240E0001E55D22E2A6B2AE
:200C600020D0E5C0A9FF000E016EC00E006E800E026EA9500026E86A0122E86A022200C0B6
:200C8000E9FF01C0F3FF025018EC08F0A86EA69EA69CA684550EA76EAA0EA76EA682000137
:200CA000E52BE4CF02F0E4CF01F0E4CF00F0E4CFD9FF1200D9CFE5FFE1CFD9FF00C0E5FFE3
:200CC00001C0E5FF02C0E5FF03C0E5FF04C0E5FF020EDBCF00F0030EDBCF01F0026A080EA2
:200CE000036E800E0014046E00500026025002260450D8A402800150025C03E30150025EE7
:200D00000080032EEED70050E4CF04F0E4CF03F0E4CF02F0E4CF01F0E4CF00F0E4CFD9FF49
:200D20001200D9CFE5FFE1CFD9FF00C0E5FF01C0E5FF02C0E5FF020EDBCF00F00A0EE56E89
:200D400000C0E5FF5AEC06F0016EE450E4500138F00B026EF00E0214016E0A0EE56E00C08A
:200D6000E5FFE7EC05F0006EE450E4500F0E0016005001120150E4CF02F0E4CF01F0E4CF0E
:200D800000F0E4CFD9FF1200D9CFE5FFE1CFD9FF00C0E5FF01C0E5FF02C0E5FF020EDBCF09
:200DA00000F0016A9382080E026E02500BE001500126938081A0FDD781A201D001809390E8
:200DC0000206F3D7005002E0939201D093829380939093820150E4CF02F0E4CF01F0E4CF6C
:200DE00000F0E4CFD9FF1200D9CFE5FFE1CFD9FF00C0E5FF01C0E5FF02C0E5FF020EDBCFA9
:200E000000F01C0E0014016E01343E0B026E02260236E00E0014016E0138016E01441F0B5F
:200E20000212030E0016005002120250E56EB9EC04F0E12AE4CF02F0E4CF01F0E4CF00F0DE
:200E4000E4CFD9FF1200D9CFE5FFE1CFD9FF00C0E5FF020EDBCF00F080EC08F09BEC08F0B0
:200E6000D00EE56EA6EC07F0E12A0050E56EA6EC07F0E12A9BEC08F0D10EE56EA6EC07F03C
:200E8000E12A010EE56EC4EC06F0006EE12AA9EC08F00050E4CF00F0E4CFD9FF1200E8CFF2
:200EA000E5FFD8CFE5FFE0CFE5FFF3CFE5FFF4CFE5FFE9CFE5FFEACFE5FFFACFE5FFFBCF33
:200EC000E5FF57EC04F087EC08F021EC06F0F294E4CFFBFFE4CFFAFFE4CFEAFFE4CFE9FF73
:200EE000E4CFF4FFE4CFF3FFE4CFE0FFE4CFD8FFE4CFE8FF100000C0E5FF01C0E5FF02C0D6
:200F0000E5FFA96A240EA95C1AE2A69EA69CA680000E016EC00E006E800E026EA950002625
:200F2000E86A0122E86A0222A8CFE5FF00C0E9FF01C0F3FF02506EEC08F0A92AE3D7E4CF2C
:200F400002F0E4CF01F0E4CF00F01200D9CFE5FFE1CFD9FF00C0E5FF01C0E5FF020EDBCF2F
:200F600000F0080E016E01500BE000AE02D0938201D0939293809390005000260106F3D7B8
:200F800093829380006A81B2002A93900050E4CF01F0E4CF00F0E4CFD9FF1200D9CFE5FF7F
:200FA000E1CFD9FF00C0E5FF01C0E5FF020EDBCF00F00F0E0014016EF00E001600380F0BB0
:200FC0000A0DF3CF00F0005001260150E4CF01F0E4CF00F0E4CFD9FF1200400ED36E926A11
:200FE000936A7F0EC16E7BEC07F078EC08F015EC00F07BEC07F078EC08F015EC00F0F2945C
:20100000F28AF28EE00ED56EB9EC08F0120092829294929693969398080EE56EE56EE56E2F
:20102000E56EE56EE56EA5EC02F0060EE1261200E8AE04D0F3CFEAFFEE501200E8BC08D026
:20104000E9CFF6FFF3CFF7FFF86E0900F550120012000001EE07180EEE5D02E3170EEE6F85
:20106000020EE56E59EC05F0E12A12000001EF2B3C0EEF5D01E3EF6B010EE56E59EC05F02B
:20108000E12A12000001EE2B180EEE5D01E3EE6B020EE56E59EC05F0E12A120010EEBFF004
:2010A00020EEBFF0F86AA68EA69C09EC05F0EDEC07F0FFD70001E56B240E0001E55D03E260
:2010C00021EC06F0F9D712000001F06B0001F16B000EE56A59EC05F0E12A1200E8AE05D053
:2010E000F3CFEAFFE4CFEEFF1200E8AC12001200B1EC08F0010EBBEC05F0F2EC03F01200B8
:20110000938281B203D093909380FBD7120095EC08F077EC01F06BEC03F0120001006E11F1
:201120000000E400000003000000C282C2B2FED7C4CFBEFF12009382938093929390120057
:201140008A908A92A9EC08F01200A69EA69CA68012009392938093821200F2B44FEF07F0C2
:161160001000A0EC08F012000001E56B120001240000FFD7120063
:020000040030CA
:0E000000FFF8F2FEFFFFFAFFFFFFFFFFFFFF1A
:0200000400F00A
:2000000000000000000000000000000000000000000000007F000000000000000000000061
:200020000000000000000000000000000000000000000000000000000000000000000000C0
:200040000000000000000000000000000000000000000000000000000000000000000000A0
:20006000000000000000000000000000000000000000000000000000000000000000000080
:20008000000000000000000000000000000000000000000000000000000000000000000060
:2000A000000000000000000000000000000000000000000000000000000000000000000040
:2000C000000000000000000000000000000000000000000000000000000000000000000020
:2000E000000000000000000000000000000000000000000000000000000000000000000000
:0400000500000000F7
:00000001FF
